:020000040002F8
:1060000030710020C1630200C9630200CB6302004B
:10601000CD630200CF630200D163020000000000E4
:10602000000000000000000000000000D363020038
:10603000D563020000000000D7630200D9630200AC
:10604000A9670200DB630200C56A0200DB6302008D
:10605000DB630200DB6302008D650200DB6302008C
:10606000DB630200DB630200DB630200DB63020030
:10607000DB630200DB630200DB630200DB63020020
:10608000DB630200FD670200DB630200DB630200EA
:10609000DB630200DB63020015680200DB630200C1
:1060A000DB630200DB630200DB630200DB630200F0
:1060B000DB630200DB630200000000000000000060
:1060C000DB630200DB630200DB630200DB630200D0
:1060D000DB630200DB630200DB6302000000000000
:1060E00000000000000000000000000000000000B0
:1060F00000000000000000000000000000000000A0
:10610000000000000000000000000000000000008F
:10611000000000000000000000000000000000007F
:10612000000000000000000000000000000000006F
:10613000000000000000000000000000000000005F
:10614000000000000000000000000000000000004F
:10615000000000000000000000000000000000003F
:10616000000000000000000000000000000000002F
:10617000000000000000000000000000000000001F
:10618000000000000000000000000000000000000F
:1061900000000000000000000000000000000000FF
:1061A00000000000000000000000000000000000EF
:1061B00000000000000000000000000000000000DF
:1061C00000000000000000000000000000000000CF
:1061D00000000000000000000000000000000000BF
:1061E00000000000000000000000000000000000AF
:1061F000000000000000000000000000000000009F
:10620000DFF80CD000F084F900480047FDA8020038
:106210003071002030B450E8012F93B2C489234478
:106220008489A34228BF1B1B0489A34202BFBFF37A
:106230002F8F002007E0C3EA020340E80134002C5E
:10624000E9D14FF001000A6030BC704750E8012FDF
:10625000C2EA024240E801210029F7D1704730B478
:1062600050E8022F1FFAA2F3C488A34202BFBFF373
:106270002F8F00200DE0C48923448489A34228BFC6
:106280001B1BC2EA034340E80234002CE8D14FF064
:1062900001000A6030BC704750E8022FC2EA224277
:1062A00040E802210029F7D17047034653E8022F46
:1062B000D988B2EB324F4FF0000017BF92B241EADB
:1062C000014142EA014104E05A68B2EB324F08BF93
:1062D000012043E80212002AE8D1704730B4044696
:1062E00054E8000F0D4644E80053002BF8D1156028
:1062F00030BC704730B4044654E8000F40EA010552
:1063000044E80053002BF7D1156030BC704730B41F
:10631000044654E8000F00EA010544E80053002B4E
:10632000F7D1156030BC704730B4044654E8000F14
:1063300080EA010544E80053002BF7D1156030BC1A
:10634000704730B4044654E8000F00EB010544E800
:106350000053002BF7D1156030BC704730B40446B1
:1063600054E8000FA0EB010544E80053002BF7D1DF
:10637000156030BC704770B404464FF0000054E81C
:10638000006F0D68AE4207BF44E80023012044E8D7
:1063900000630E60002B1CBF0020F0E770BC70474C
:1063A00030B4044654E8000F88422CBF451A054615
:1063B00044E80053002BF5D1156030BC7047000055
:1063C0000648804706480047FEE7FEE7FEE7FEE78F
:1063D000FEE7FEE7FEE7FEE7FEE7FEE72D680200C8
:1063E000016202002DE9F05F0546002092469B46BF
:1063F00088460646814640241BE0284641464746DB
:10640000224600F075F853465A46C01A914110D3FF
:1064100011461846224600F016F82D1A67EB0108BF
:106420004F4622460120002100F00DF817EB00092D
:106430004E41201EA4F10104DFDC484631462A46C5
:106440004346BDE8F09F202A04DB203A00FA02F11F
:10645000002070479140C2F1200320FA03F3194352
:106460009040704740EA01039B0703D009E008C948
:10647000121F08C0042AFAD203E011F8013B00F809
:10648000013B521EF9D27047D2B201E000F8012B55
:10649000491EFBD270470022F6E710B513460A46A4
:1064A00004461946FFF7F0FF204610BD421C10F8C5
:1064B000011B0029FBD1801A704710B5002200E0B3
:1064C000521C835C8C5CA34201D1002BF8D1D8B262
:1064D000E1B2401A10BD30B504460020034600E08A
:1064E0005B1C934203D2E05CCD5C401BF8D030BD16
:1064F000202A04DB203A21FA02F00021704721FA19
:1065000002F3D040C2F1200291400843194670477F
:10651000064C074D06E0E06840F0010394E80700F0
:1065200098471034AC42F6D3FFF76EFEE0FC020051
:1065300000FD020070B58C1810F8015B15F0070320
:1065400001D110F8013B2A1106D110F8012B03E00C
:1065500010F8016B01F8016B5B1EF9D12B0705D414
:106560000023521E0DD401F8013BFAE710F8013B5D
:10657000CB1A921C03E013F8015B01F8015B521E79
:10658000F9D5A142D8D3002070BD00002DE9F04F0D
:1065900089B00027002008904FF4807007900126F2
:1065A000002412E0079805F0E1FA40B100BF7B48F3
:1065B0000068304018B1079805F0CAFA37437600F2
:1065C0000798001D80B20790641C082CEAD34FF492
:1065D000BE7005F0CBFA50B14FF4BE7005F0B8FABA
:1065E00047F0004708AA0121002005F097FAF8B209
:1065F00000B3012600241BE006EA0700B0B100BF8B
:10660000674850F82400C0F30420804600BF644867
:1066100050F82400C0F301408146204602F02EFBD2
:10662000054615B149464046A84700BF7600641CA0
:10663000082CE1D307F0004000287DD00020069010
:106640000590002505E04FF0FF3004A941F8250032
:106650006D1C002DF7D000BF0020069000245FE0E5
:106660005048005D0390039820F0C0094D48005742
:10667000401C002853D004A9484604F0A6FB00287B
:106680004DD003984FEA901A484602F03FFB8046EF
:1066900002F0F4FA0290029810B9BAF1030F3DD15A
:1066A000BAF1030F03D105A9484604F099FB00BFD6
:1066B00000BF4FF0A041084600F5E06151F82910F5
:1066C000C1F3014800BF08A9484604F07EFB834699
:1066D000BBF1000F02D0B8F1020F05D0BBF1000FE3
:1066E0001BD1B8F1030F18D1BAF1030F0FD1B8F1D4
:1066F000020F01D1032000E00220019048460199D9
:1067000005F0B4F90698401CC0B2069000BF02988C
:1067100018B151464846029A904700BF00BF641C1A
:10672000042C9DD3069888B34FF0010803AA0121D9
:10673000002005F0F3F900E02DE000250BE003A8B0
:1067400050F8250008A951F82510884202D04FF0D2
:10675000000802E06D1C002DF1D000BFB8F1000F61
:1067600002D00020069010E000250CE003A850F8AD
:10677000250008A941F8250005A850F8250004A91E
:1067800041F825006D1C002DF0D000BF06980028B0
:106790007FF462AF00BF09B0BDE8F08F0463004032
:1067A000106500405C4E002010B54FF4807004F07E
:1067B0002BFF80B14FF4807004F02FFF012004F014
:1067C00035FF0D48407930B901200B494871084622
:1067D0000168002088474FF4827004F015FF50B123
:1067E0004FF4827004F019FF022004F01FFF0248EA
:1067F00001680120884710BDA03F002010B5034A62
:106800001068034A1168884710BD0000104000203E
:106810000C40002010B505F0CDFC10BD0148024928
:10682000086070470090D0038040002010B503F04E
:1068300081F828B192480088C0F30420914908608B
:1068400003F0CCF810B190489049486703F0EEF897
:1068500030B18B48E0380068C0F342308C490860A2
:1068600003F00EF928B18B48006820F08070894948
:10687000086003F01DF948B10020874908604FF017
:106880008041C1F810018249091F086003F03AF9FC
:1068900018B103207E496431086003F04BF968B1F8
:1068A00005207E49086001207C497831086000207D
:1068B0007A49083108603F20091F086003F052F947
:1068C000002855D06E48E0300068754908606C4873
:1068D000E4300068091D08606948E8300068091D57
:1068E00008606748EC300068091D08606448F030B3
:1068F0000068091D08606248F4300068091D0860DE
:106900005F48F83000686649203108605C48FC3018
:106910000068091D086063480068091D0860614837
:10692000001D0068091D08605E4808300068091DE8
:1069300008605C480C300068091D08605948103038
:106940000068574940310860564814300068091DF6
:106950000860544818300068091D086051481C3010
:106960000068091D08604F4820300068091D086054
:1069700002F0B6FF30B14248CC38006800F04F005A
:106980004949086003F000F840B14848006800F049
:10699000010018B16FF001004449086003F036F8B7
:1069A00028B14348006840F4806041490860394894
:1069B0007438006840F4700036497439086000BFCC
:1069C00000BF00BFBFF34F8F00BF00BF00BF00BFBD
:1069D00000BF00BFBFF36F8F00BF00BF00BF3548CF
:1069E000006800F0004028B93248001D006800F03F
:1069F0000040E8B301203049086000BF2F4800681C
:106A00000028FBD015202B49086000BF2B480068E8
:106A10000028FBD015212748001D016000BF274832
:106A200000680028FBD000202349086000BF2348ED
:106A300000680028FBD000BF00BF00BF00BF00BF40
:106A4000BFF34F8F00BF00BF00BF1248F03800688F
:106A500000F4E0601A490843001D0E49F03908604F
:106A600000BF00BF00BFBFF34F8F00BF00BF00E0FB
:106A700003E000BF00BF00BFFDE7FFF7CFFE10BD82
:106A800024030010403501400DF0ADBA00C00740AE
:106A90003C050040FCED00E00C01004010560040B9
:106AA00020C5004024040010E40E00400004004013
:106AB0003C1700400012001004E5014000E40140D2
:106AC0000000FA0510B502490868804710BD0000B3
:106AD000A83F002002E008C8121F08C1002AFAD10E
:106AE00070477047002001E001C1121F002AFBD14E
:106AF000704700000146202908DA012088400A4A30
:106B0000104008B1012070470020FCE7402909DA55
:106B1000A1F12000012202FA00F008B10120F2E701
:106B20000020F0E70120EEE7FC06FFBD00BFEFF319
:106B30001081084672B67047014601F0030008B99B
:106B4000012070470020FCE7024650680068401EA4
:106B5000084008B9012070470020FCE702460021E8
:106B600004E0505C08B101207047491C0629F8D3A5
:106B70000020F9E710B50346D868884206D888187F
:106B8000401E1C69A04201D8012010BD0020FCE776
:106B900010B504466CB10848C068A04209D8064840
:106BA0000069A04205D3204603F05DFE08B1012034
:106BB00010BD0020FCE700008440002070B50446B2
:106BC0000D4604F22740FFF7C9FF0646012D06D007
:106BD000022D0DD0032D11D0042D19D113E0A07971
:106BE00028B194F8240010B90EB1012070BD00BF87
:106BF000E07910B10EB10220F8E700BF207A08B1A9
:106C00000320F3E700BF607A08B10420EEE700BF7D
:106C10000020EBE70146481C052290FBF2F302FB43
:106C20001300C0B270472DE9F04704460D462F46C9
:106C300095F82080B4F81C9000260BE007EB461274
:106C40004946A06900F04FFC10B10120BDE8F08773
:106C5000701CC6B24645F1DB0020F7E7014691F80B
:106C60002420012A01D1EE2000E01F2070472DE9E9
:106C7000F05F06460C4604F1220A94F82C502A20B4
:106C800010F804904FF00008B6F81CB0002710E090
:106C90000AEB87025946B06900F08EFC28B108F172
:106CA000010000F0FF0815B905E005B103E0781C0C
:106CB000C7B24F45ECDB00BF0DB1C84503D02DB9BD
:106CC000B8F1000F02DD0120BDE8F09F0020FBE7D6
:106CD00010B504462C212046FFF7DDFB0120207172
:106CE0004FF49670206144F25060606110BD000066
:106CF00030B5ABB0AC216846FFF7CDFB02208DF874
:106D0000000000208DF8020005208DF8030001210D
:106D1000ADF84C101049149101218DF87C104FF4FE
:106D20009671229144F2506123910C482990694652
:106D30000B4800F0ACFC044600BF254625B100BF5F
:106D4000284600F0C3F800BF00BF0121044800F04E
:106D50009BFC2BB030BD0000DC3E0020FDCD0200CE
:106D60005842002070B50321064800F03BFD044660
:106D700000BF254625B100BF284600F0A7F800BF98
:106D800000BF70BD5842002010B50446022001F03B
:106D9000F9FB10BD10B5002407E00749096811F898
:106DA0003400012105F092FB641C04480078844201
:106DB000F3D3002010BD0000B03F0020B43F0020FE
:106DC0002DE9F84306460D4617460A2F02D2072042
:106DD000BDE8F88305F0AAFC38B905F051FC04467B
:106DE00000BF204600B1F3E700BF1848066018480E
:106DF00005701848076010211748FFF74CFB002169
:106E0000164A1160516015E006EBC5081448006889
:106E1000009098F802008DF8010098F80000114ADF
:106E2000694605F0A9FB044600BF204600B1CFE744
:106E300000BF00BF281EA5F10101CDB2E4D10A4A6E
:106E400000210A4800F062F8C2E70000B03F0020CD
:106E5000B43F0020B83F0020B84E0020E03F0020A3
:106E60006CFB0200B9A30200CD93020068FB020094
:106E700072B600BF1348006800F0010000B100BE08
:106E800000BF00BF00BF00BF00BF00BFBFF34F8FF8
:106E900000BF00BF00BF0B48E438006800F4E060AA
:106EA00009490843001D0749E439086000BF00BFD5
:106EB00000BFBFF34F8F00BF00BF00BF00BF00BFC8
:106EC000FDE70000F0ED00E00000FA053EB50446E5
:106ED000002000900190029002946A46002144F242
:106EE0000100FFF7C5FF3EBD0146022900D101E0C8
:106EF0000120704700BF0120FBE7000010B50248E9
:106F000002F088FB10BD0000E83F002030B50346CA
:106F10000C460AB9072030BD19684FF0FF358D6067
:106F2000CD604A61012C01D1012000E00020086100
:106F30000020F0E738B51348006800900823582275
:106F400011491248006803F01CFE04460CB12046AB
:106F500038BD0F4A69460F4802F062FB04460CB187
:106F60002046F5E701210B4802F0C4FB01230A4A41
:106F70001946084802F020FB012008490870204605
:106F8000E6E7000080FB0200C84E002070FB020014
:106F90004DE40200E83F0020FFFF7F00F43F0020A7
:106FA0002DE9F84306460D469046344600200090F1
:106FB000684600F0DDF84FF0FF33D4E90210594085
:106FC0005840014308D103F0D9F9401941F10001BB
:106FD000C4E90201012700E000279DF8000000F04D
:106FE000CDF817B90020BDE8F883C4F818802069EF
:106FF00000B125612146002008F016F8F3E7F8B546
:107000000446254600200090684600F0B1F84FF095
:10701000FF33D5E9021059405840014301D1002601
:1070200004E04FF0FF31A960E96001269DF80000FF
:1070300000F0A4F80EB90020F8BD2946012007F0A1
:10704000F3FFF9E701460020054A127832B1054AFC
:1070500012780A700022024B1A7000E00520704777
:107060005E4000205D4000202DE9F04188B00446DC
:10707000884616461F4620221D496846FFF7F2F94A
:1070800060690690207C08B1012000E000208DF8A6
:1070900014008DF81C70607C08B10E2000E0002008
:1070A0008DF81500E0680290A068039020680190B8
:1070B000606800900F48066000200F4908700F4A72
:1070C00069460F4804F0FAFA054600BF284610B199
:1070D00008B0BDE8F08100BF2068401C28B1012243
:1070E0000849074804F030FBF2E70020F0E7000011
:1070F00004FC0200604000205E400020B9F1020064
:10710000644000205D4000202DE9F0470646154808
:107110000670154C07464FF001084FF00009207823
:107120001249085C30B142463946201D05F0AAFDDF
:1071300081460AE020780D49085C30B9424639465C
:1071400004F10C0005F060FC81464D4600BF112D96
:1071500002D10420BDE8F0870DB10320FAE700203A
:10716000F8E700005C400020644000209C3F0020C5
:1071700010B50446204607F039FB10BD70B5044633
:1071800025460E488068B0B1ADB9FFF7CFFC064682
:107190000A4800680A490860084840684FF0E02142
:1071A000C1F804010020054988601EB900BF62B61D
:1071B00000BF00BF00BF00BF70BD0000304F002007
:1071C00000E100E0F8B505460C4617462088001D92
:1071D000B84201D90C20F8BD684679DF064600BFE9
:1071E000304600B1F7E700BF0320218868542088AB
:1071F000401C20801920218868542088401C208051
:1072000020884119BDF8000008F0F0F921880844F1
:1072100020800020DFE770B505460C462068401C42
:1072200028B1206804F047FC206804F007FC60687F
:10723000401C18B10021606804F0E6FB2868A169D1
:10724000C0F8241500BF617D227D286841EA020351
:10725000C0F86C3500BFD4E90012286805F0A3F827
:10726000207D012814D1A068401C18B10021A0681D
:1072700004F0CAFBE068401C28B1E06804F01BFC85
:10728000E06804F0DBFBD4E90221286805F074F81B
:1072900070BD70B505460C462068401C28B12068BA
:1072A00004F014FC206804F0D5FB6068401C18B1A1
:1072B0000021606804F0B5FB2868A169C0F82415B6
:1072C00000BF617D227D286841EA0203C0F86C3569
:1072D00000BFD4E90012286805F09DF8207D012840
:1072E00014D1A068401C18B10021A06804F099FBDB
:1072F000E068401C28B1E06804F0E8FBE06804F0B6
:10730000A9FBD4E90221286805F066F870BD2DE9D3
:10731000F04104460F46154615B90E20BDE8F08130
:107320000020286000BF0CB90E20F7E700BF00BFA7
:10733000206808B90E20F1E700BF00BFE088C11740
:1073400000EB91718910A0EB810109B10720E5E7FD
:1073500000BF384600F04EFBC6B2142E01D1052006
:10736000DCE72079B04201DC0420D7E7E18820681F
:1073700006FB010028600020D0E72DE9FC4105460E
:1073800088461646002437880020308095F82D0066
:1073900058B13A463146404600F0CCFB044600BFA7
:1073A000204608B1BDE8FC8100BFA87850B13A463C
:1073B00031464046FFF706FF044600BF204600B1B5
:1073C000F0E700BFE87860B1E97848B23B46324662
:1073D000414602F030FD044600BF204600B1E1E71F
:1073E00000BF686868B1696891F900003B463246A1
:1073F000414607F097FE044600BF204600B1D1E7A2
:1074000000BF288900280EDD43460622022105F12F
:107410000800CDE9006708F06FF9044600BF204678
:1074200000B1BFE700BF288A00280EDD43460722CF
:10743000032105F11000CDE9006708F05DF904466D
:1074400000BF204600B1ADE700BF288B00280EDD4D
:1074500043461522142105F11800CDE9006708F014
:107460004BF9044600BF204600B19BE700BF286AE5
:1074700058B13B4632464146286A01F03FFE044679
:1074800000BF204600B18DE700BF686A58B13B4697
:1074900032464146686A03F065FA044600BF20465A
:1074A00000B17FE700BF95F82C0000280BDD3B46BC
:1074B00032464146284607F057FA044600BF2046A8
:1074C00000B16FE700BF287858B13B4632464146CD
:1074D000284603F0E7FA044600BF204600B161E702
:1074E00000BF20465EE72DE9F8430646884615466C
:1074F000002000900DB9BDE8F88309236A46414693
:10750000304600F02BF80446BDF800003718BDF8EF
:10751000000068B164B12846FEF7C8FFA04207D159
:10752000224639462846FEF7D6FF08B90120E2E791
:107530000020E0E7F8B504460E461546002000900E
:107540002B466A463146204600F008F807460FB938
:107550000020F8BDBDF800002044FAE7F0B504466D
:107560000D461E4604B10AB90020F0BD002103E01B
:10757000605C401C084481B2481CA84206DA1088AE
:107580008842F5DC481C205CB042F1D1A94201DB05
:107590000020EAE7881C87B2605C10B1605C401E86
:1075A00000E0002083B213B1F818A84201DD0020EA
:1075B000DBE717801846D8E72DE9F04788B0044686
:1075C0000E4617460020079010200690B24602AAE9
:1075D00006A9384664DF814614B1B9F1000F03D023
:1075E000002008B0BDE8F0879DF81800022804D0FC
:1075F000042809D0102815D10DE003208DF80400CF
:1076000002208DF805000FE005208DF8040004200D
:107610008DF8050008E007208DF8040006208DF89D
:10762000050001E00020DCE700BF002509E001A81B
:10763000435D07AA31462046FFF790FF8246681C4B
:10764000C5B2022D03DABDF81C000028EFD0BDF84A
:107650001C0008B90020C4E7BDF81C0004EB0008BA
:1076600000250DE008EB05009DF8182002A9FEF7A3
:1076700032FF08B90120B4E79DF81800284485B20C
:107680005545EFDB0020ACE780F83010704770B54F
:1076900004460D4605B10CB90E2070BD05F1780009
:1076A00001F0A5FC08B90720F7E70020A0702C2204
:1076B00005F17801201DFEF7D5FE002084F830008A
:1076C000D5F8A4006063D5F8A800A0634FF6FF705A
:1076D000A4F8240404F58260C4F82004002140F2D8
:1076E0002C40C4F82614A4F82A140155207810B9A7
:1076F000FF2084F8540004F15500C4F8100420461B
:10770000FFF7ACFA40F21441085304F2144204F1BA
:1077100055012846FFF731FE064600BF304600B14E
:10772000BBE700BF04F231204FF4836108512046CB
:10773000FFF794FAA4F81C044FF48360015904F293
:107740001C4205F13C00FFF718FE064600BF30461C
:1077500000B1A2E700BF012151200155208B81B269
:1077600048200153012084F83C000021216450206E
:1077700001556169616404F13C02002104F1540087
:1077800072DF064600BF304600B186E700BF012029
:107790002070304681E770B504460D462C222946FC
:1077A000201DFEF75FFE70BD70B504460D462E46E7
:1077B0002088102804D0112807D026280FD109E0EE
:1077C0002146304605F012FD0AE02146304605F01C
:1077D0007FFE05E02146304606F0ACF800E000BF31
:1077E00000BF70BD70B504460E46207808B9082069
:1077F00070BDA670002140F22C40C4F82614A4F8F5
:107800002A140155A07910B1A078012809D0E07997
:1078100010B1A078012804D0E07970B1A0780228D6
:107820000BD1606B30B1012084F82D040820616B0E
:10783000884702E0002084F82D0431462046FFF7F7
:10784000BDF9A070606BA0B1A078032802D0A07829
:1078500004280ED1607960B194F82E0448B9002054
:1078600084F83004012084F82F040720616B8847D6
:1078700002E0002084F82F04182104F13C00FEF7F8
:107880000AFE012084F83C0004F12C0006F066F9A1
:1078900020B194F82C105120015502E00121512013
:1078A000015594F8240060B104F1280006F056F95F
:1078B00020B194F828105220015502E001215220F5
:1078C0000155002150200155A078052824D2DFE879
:1078D00000F01F030A11180004F13C01204607F0D4
:1078E000EFF8054619E004F13C01204607F0D0F816
:1078F000054612E004F13C01204607F0F3F8054686
:107900000BE004F13C01204607F01AF9054604E0BB
:10791000002084F8310000E000BF00BFA07898B1DB
:1079200004F13C0204F15400D4F8201472DF05463F
:107930000DB128465CE794F8301094F8540073DFDA
:1079400005460DB1284653E7606B18B194F8310035
:10795000616B884700204BE72DE9F041044600BFEA
:1079600014B90E20BDE8F08100BF1C2221461C483E
:10797000FEF778FD1B481A490860206860B120684E
:107980007ADF05460DB12846ECE7164821680A68FB
:1079900002604968416005E012487BDF05460DB191
:1079A0002846DFE7002617E006EB86000E4901EBCC
:1079B000800700BF4FF6FF70388000BF0B4800EB18
:1079C000461078600A4A0021381DFFF79FFA0546E5
:1079D0000DB10320C6E7761C022EE5D30020C1E7D7
:1079E000484D00207A3F0020204D0020E04C002030
:1079F0001DF6020010B50446204600F011F808B14B
:107A0000204610BD1420FCE770B504460D4603491E
:107A100088682A46214602F03FFA70BD644D002076
:107A200010B50446142C01DB002010BD214602488D
:107A300003F002F9F9E70000684D002010B5044694
:107A400000BF0CB90E2010BD00BF00BF0648007873
:107A5000012801D00820F6E700BF0448016820464D
:107A600006F07AFCEFE70000903F0020843F002002
:107A70000146002200BF09B90E20704700BF00BFB9
:107A8000086808B90E20F8E700BF00BF486808B9C9
:107A90000E20F2E700BF0020064B18600120064BC5
:107AA0001870064B08681860054B48681860104647
:107AB000E3E700008C3F0020903F0020843F00203F
:107AC000883F002070B504460D4600BF04B970BD64
:107AD00000BF00BF05B9FAE700BF00BF1448007837
:107AE000012800D0F3E700BF2E462088112815D0CA
:107AF000302804D0322807D0332814D109E0211DC2
:107B0000304605F023FE0FE0211D304605F000FA57
:107B10000AE0211D304605F027FC05E0211D304616
:107B200005F0EFFC00E000BF00BF00BFCFE70000A2
:107B3000903F00202DE9FC4105460C461746208861
:107B40000930B84202D90C20BDE8FC8168466DDFDF
:107B5000064600BF304600B1F6E700BF0820218886
:107B600068542088401C20801B202188685420886D
:107B7000401C208020882844DDF801100160BDF8F9
:107B8000051081802088801D20809DF8000040081D
:107B900018B900202188685402E001202188685427
:107BA0002088401C20800020CEE70000014600BF56
:107BB00009B90E20704700BF014801600020F9E7B5
:107BC0007C40002010B54FF0FF3100203DDF04461F
:107BD00000BF204600B110BD00BFB12100203CDF36
:107BE000044600BF204600B1F5E700BF04484169E4
:107BF00001208847022004F07BF80020EBE700001A
:107C0000E850002010B50548006841690020884709
:107C1000FFF7D8FF0446204610BD00007C4000203E
:107C200010B588B0044620216846FEF734FC0320D6
:107C3000ADF8000020788DF802009DF80D0020F0CE
:107C4000200020308DF80D009DF80D0020F0080078
:107C500008308DF80D0001208DF810008DF80C0013
:107C60001720ADF8040001208DF813008DF81200E4
:107C70008DF811006088A21D694601F04DF808B02A
:107C800010BD000030B585B00546244B0FCB8DE804
:107C90000F0000BF15B90E2005B030BD00BF4FF674
:107CA000FF701F49888028684861002008760846D0
:107CB000406908B91B4848611948FFF777FF044637
:107CC00000BF204600B1E7E700BF00BF01208DF8EC
:107CD00012004FF65960ADF8100000BF104A921C18
:107CE00004A90120A8DF044600BF204600B1D3E765
:107CF00000BF0B49684662DF044600BF204600B162
:107D0000CAE700BF0648FFF78BFF044600BF2046C6
:107D100000B1C1E700BF0020BEE70000D0FC0200B8
:107D2000E85000202F98020070B504460D4600BFB1
:107D300004B970BD00BF2088102806D0112808D0D3
:107D400051280AD0532810D10BE0204605F048FAFC
:107D50000CE0204605F0AEFB08E0204605F038FDBB
:107D600004E0204605F04CFC00E000BF00BF00BF6F
:107D7000DFE7000070B504460426207B012802D00E
:107D8000022822D109E001F053FD05460DB9012674
:107D900002E0112D00D1062619E0607B142801DCD9
:107DA000607B08B905260FE0627B04F10E011248E2
:107DB000FEF758FB607B1049091F8861084606F0F2
:107DC000EDFE054605B9012601E0022600BF00BF11
:107DD000012E0FD0207B314600F058F8054625B122
:107DE00006480068416903208847044800684169E3
:107DF0000220884770BD0000145100207C40002004
:107E000070B505460E4600BF1E48006820B11D48EB
:107E1000406808B1012000E0002000B970BD00BF3B
:107E2000184800F10801426828469047044600BF00
:107E3000082C24D07CB90020134909684876012118
:107E4000022000F023F80446CCB10F4800684169D5
:107E50000320884713E000200B4909684876062173
:107E6000022000F013F8044624B107480068416975
:107E7000032088470448006841690220884700BF02
:107E8000CCE70000045100207C400020F0B587B012
:107E900004460D46032700200190029003900490B1
:107EA0000320069020208DF814008DF815408DF8E1
:107EB00016500E48C088ADF8040002208DF8060068
:107EC0000020ADF8080006A8039005A80490074913
:107ED000888801A9AEDF064626B9BDF81800032838
:107EE00000D00C26304607B0F0BD0000E85000205E
:107EF00030B58BB0044634B1012C14D0022C13D011
:107F0000032C16D111E06846FEF7E2FE01208DF841
:107F1000000069460948FFF73EFC00210848FFF7CA
:107F200073FD054606E005E004E000BF002000BF49
:107F300000E000BF00BF0BB030BD00005842002081
:107F40002D94020070B504460D462946204604F0E3
:107F50005DFF70BD70B504460D462088102806D020
:107F6000112808D012280ED0502810D107E0204642
:107F700005F0C4F80CE0204605F083FA08E020463E
:107F800005F00AFD04E0204605F0A0F800E000BF7F
:107F900000BF70BD2DE9F04104460F46A688208839
:107FA000102806D0112817D019283DD01A2848D1FA
:107FB00016E006F06BF9304605F0F4FF20B900BF7B
:107FC0000420FEF783FF06E0E07B022803D1314660
:107FD0001D4802F040FE34E0304606F07BF930E008
:107FE000207A0509042D01DB012000E00020024673
:107FF000314615480C3001F00FFF032D01DB012045
:1080000000E00020024631460F48083001F004FF2E
:10801000022D01DB012000E00020024631460A4823
:10802000001D01F0F9FE0CE0207A48B9607AC0F337
:10803000C0052A46314604480C3001F0EDFE00BF71
:1080400000BF00BFBDE8F081704D00202DE9F04178
:1080500007460C46207820B1012820D0022826D1DE
:1080600022E0618804F10E02384600F023F805464C
:1080700000BF2E4626B100BF3046FEF727FF00BFE7
:1080800000BF384600F01EF9054600BF2E4626B157
:1080900000BF3046FEF71AFF00BF00BF07E0A1890E
:1080A000A06800F025F902E006F042FB00BF00BF27
:1080B000BDE8F08170B504460E46154600BF0CB908
:1080C0000E2070BD00BF66802DB16988E1802888D0
:1080D000A080A98821813146606902F00CFFF0E799
:1080E00070B586B004460D461A4B0FCB01AE0FC6D5
:1080F00000BF14B90E2006B070BD00BF00BF0DB99F
:108100000E20F8E700BF00BFA86808B90E20F2E70C
:1081100000BF214601A862DF064600BF304600B11D
:10812000E9E700BF20788DF816000120ADF81400B3
:108130004FF6FF7060802868E0606868206100206A
:10814000A08000212181A868606105A8FFF776FC66
:10815000D1E70000B8FA020070B586B005460E46B9
:10816000344604B10DB906B070BD60884FF6FF719A
:10817000884203D06088A988884200D0F3E7288825
:10818000112806D0392816D12946204605F04EFA86
:1081900012E0A888618888420CD1E06850B10220C2
:1081A0008DF804004FF6FF70608001A92046E26858
:1081B000904700BF00E000BF00BF00BFD3E770B52D
:1081C00086B005460C46142101A8FEF764F904F1B7
:1081D0000E06207800283AD1A088012837D1A0794E
:1081E0002978884233D1002022E000EBC00136F824
:1081F0001110022902D0032917D107E000EBC001BA
:1082000006EB41010A89ADF816200FE000EBC00132
:1082100006EB41010989ADF8121000EBC00106EB35
:1082200041014A89ADF8142000E000BF00BF401CA6
:10823000217A8142D9D8E86848B16088ADF8060053
:1082400000208DF8040001A92846EA68904706B08E
:1082500070BD000070B588B004460E46154600BFDC
:1082600014B90E2008B070BD00BF20216846FEF78B
:1082700012F9F42D01DD0720F4E760884FF6FF7155
:10828000884201D10820EDE701208DF800000C485C
:10829000029003942189ADF81210ADF81650002118
:1082A000ADF81410069602208DF8100001218DF80B
:1082B000111062886946606902F048FED2E700004A
:1082C000599F020010B5044600BF0CB90E2010BD26
:1082D00000BF60884FF6FF71884201D0E08808B97E
:1082E0000820F4E70121204600F088FCEFE70000B9
:1082F0002DE9F04105460E46002715E000BFE85D78
:10830000FEF702FF044664B1112C0AD000BFA0465C
:10831000B8F1000F04D000BF4046FEF7D7FD00BF04
:1083200000BF112CEBD07F1CB742E7D3701E285C36
:108330000D2805D100BF0A20FEF7E6FE1128FAD06D
:1083400000BF324629460A48FFF784FF044654B16D
:10835000112C08D000BF274627B100BF3846FEF7D2
:10836000B5FD00BF00BF112CEBD0BDE8F0810000CF
:108370009840002070B58EB004460E463E4B0FCBA1
:1083800009AD0FC500BF14B90E200EB070BD00BFFF
:1083900000BF0EB90E20F8E700BF3068A06121468B
:1083A00009A862DF054600BF284600B1EDE700BF1F
:1083B00020788DF836000120ADF83400A21C0DA9FC
:1083C000A8DF054600BF284600B1DEE700BF202138
:1083D00001A8FEF760F80220ADF8040020788DF8BF
:1083E0000600F420ADF808000120ADF80A008DF871
:1083F00010009DF8110020F0080008308DF81100E1
:108400009DF8110020F00400001D8DF811000120DE
:108410008DF815008DF81600608804F10C0201A992
:1084200000F07AFC05460DB12846AEE7202101A8F0
:10843000FEF731F80320ADF8040020788DF806002F
:10844000F420ADF808000120ADF80A008DF8100006
:108450009DF8110020F0100010308DF8110001205F
:108460008DF815008DF816008DF817006088221D14
:1084700001A900F051FC88E7A8FA020070B5044693
:108480000D4605B104B970BD2E462088102804D0D1
:10849000502807D057280FD109E02146304604F074
:1084A00065FE0AE02146304605F0A2FA05E02146C5
:1084B000304605F0D7F800E000BF00BF00BFE2E79C
:1084C00070B50446204607F08BF80546C5F340001A
:1084D00070BD70B50446204607F082F8054605F0E9
:1084E000010070BD38B503F023FE044600BF2546E9
:1084F00025B100BF2846FEF7E9FC00BF00BF002001
:1085000000906946012003F035FD044600BF254672
:1085100025B100BF2846FEF7D9FC00BF00BF684662
:1085200003F088FD044600BF254625B100BF28465C
:10853000FEF7CCFC00BF00BF38BD00007CB50024B6
:108540000DE00848055D03260020009033460246F2
:1085500001460190284603F007FA00BF641C002C76
:10856000EFD07CBDE4F9020010B5044604F0010030
:1085700008B100F04BF804F0020008B1FFF7DEFF8D
:1085800010BD000010B502460949885C00BF4FF0DD
:10859000A0442146D1F80435012484409C43C1F80D
:1085A0000845012484401C40C1F80C4500BF10BDA3
:1085B000E0F9020010B504460249085D012103F00C
:1085C00090FA10BDE0F9020010B504460249085DBA
:1085D000002103F086FA10BDE0F9020010B5014653
:1085E000094B585C00BF4FF0A044234600BFD3F8AE
:1085F0000445C44004F001040CB1012000E0002057
:10860000024682F0010010BDE0F902007CB50024B2
:108610000CE00948055D0020009003460122114648
:108620000190284603F0A0F900BF641C042CF0D38D
:1086300000F004F87CBD0000E0F9020010B5002451
:1086400003E02046FFF7B6FF641C042CF9D310BDED
:1086500010B5002403E02046FFF7B6FF641C042C8D
:10866000F9D310BD02464FF0FF30002106E0054B64
:108670005B5C934201D1084602E0491C0029F6D018
:1086800000BF7047E4F902002DE9F04106460F46AD
:108690004FF0000800243046FFF7E4FF0446002CAA
:1086A0003ED10FB3012F02D0022F38D130E004EBBE
:1086B0004400214911F8008004EB4400084440784C
:1086C00050B11E4A4FF480411D480068FEF768FC17
:1086D00005460DB91948067004EB440016490844D4
:1086E0008078184908551AE015480068FEF787FC9D
:1086F0001448005D04EB44010F4A11448978884214
:1087000005D104EB44001146084490F8028006E0CD
:1087100004EB44000849084490F8018000BF00BF02
:10872000B8F1000F06D00848006818B14046064965
:1087300009688847BDE8F081543F0020783F002059
:10874000F0F90200793F0020503F00200E2800D1B0
:1087500000E000BF00BF704770B505460E4600241C
:10876000174805601748066005F0020090B134B95B
:1087700040F2333201211448FEF722FB044614B9BB
:10878000FEF708FB04462CB9104A00211048FEF7FA
:10879000BDFB044605F0010080B10120FFF7E4FEB7
:1087A0002CB90C4A00210C48FEF7B0FB04462CB94A
:1087B0000A4A01210A48FEF7A9FB0446204670BD7B
:1087C000043F0020503F0020F4F90200998B020082
:1087D000F0F90200ADA80200E8F90200896D02007C
:1087E000ECF902002DE9F047044600260025DA489E
:1087F000007820B10020D849087002F043F8182C06
:108800007ED2DFE804F00C16174A7EB2F6F4F3F2DB
:10881000F1F0EFEEEDECEBEAE9E8E7E6E5E402F093
:1088200031F8CE480068FEF7EAFB0646CC480470F3
:108830008DE100BF0020FFF7D1FE58B10020FFF707
:10884000B9FE022C02D14FF4E16001E04FF47A60EE
:10885000054609E00020FFF7B7FE022C01D1C82031
:1088600001E04FF4C8700546BD4804704FF4004065
:10887000A5FB00104FF47A73CF1840F100015A00A5
:1088800000233846FDF7AEFD814600224946B34835
:108890000068FEF785FB064659E10020FFF79EFEC3
:1088A00058B10020FFF786FE032C02D14FF4487028
:1088B00001E04FF47A60054609E00020FFF784FEEE
:1088C000032C01D1C82001E04FF4C8700546A4482C
:1088D00004704FF40040A5FB00104FF47A728F181B
:1088E00040F10001520000233846FDF77BFD814630
:1088F0000022494699480068FEF752FB064626E1E9
:1089000024E10020FFF76AFE58B10020FFF752FE75
:10891000042C02D14FF47A6001E04FF47A600546EE
:108920000AE00020FFF750FE042C02D14FF4C8707B
:1089300001E04FF4C8700546894804704FF40040C8
:10894000A5FB00104FF47A73CF1840F100015A00D4
:1089500000233846FDF746FD8146002249467F4800
:108960000068FEF71DFB0646F1E00020FFF736FE2B
:1089700050B10020FFF71EFE052C01D1C82001E0F8
:108980004FF47A60054609E00020FFF71DFE052C34
:1089900001D1C82001E04FF4C8700546704804704A
:1089A0004FF40040A5FB00204FF47A73D71840F134
:1089B00000015A0000233846FDF714FD81460022CD
:1089C000494666480068FEF7EBFA0646BFE0B8E0A5
:1089D000B6E0AAE0A1E098E092E05FE05DE05BE055
:1089E00059E057E051E042E033E024E015E00EE0CA
:1089F000FFE70020FFF7C6FD59480470002240F24F
:108A0000666156480068FEF7CBFA06469FE00020F4
:108A1000FFF7DAFD5248047099E001204E490870D2
:108A2000FFF7B0FD002240F266614C480068FEF797
:108A3000B7FA06468BE0012047490870FFF7A2FD10
:108A400000224FF4005145480068FEF7A9FA064697
:108A50007DE0012040490870FFF794FD002240F2BC
:108A600066613E480068FEF79BFA06466FE001200B
:108A700039490870FFF786FD00224FF4005137484E
:108A80000068FEF78DFA064661E0FFF7E1FD344825
:108A900004705CE000BF00BF00BF00BF3148006849
:108AA000FEF7ADFA0646C4F1110515B30EBB012D54
:108AB00018D9A8B2C82148434FF4004180FB0110E7
:108AC0004FF47A728F1840F10001520000233846AB
:108AD000FDF788FC81460022494622480068FEF7DF
:108AE0005FFA06460220FFF76FFD01201E4908705D
:108AF00005E00220FFF75EFD00201B49087026E01C
:108B000001F0C0FE1648047021E001F0BBFE002019
:108B1000FFF75AFD1248047019E001F0B3FE01207E
:108B2000FFF752FD0E48047011E001F0ABFE00208B
:108B3000FFF74AFD0120FFF747FD0948047006E0F2
:108B400000BFFFF785FD0648047000E000BF00BFCE
:108B50003046BDE8F0870000013F0020E8F9020040
:108B6000003F0020ECF90200083F002002460021EF
:108B700008E0074B1B6803EBC1000378934200D168
:108B80007047491C034800788142F2DB0020F7E778
:108B9000B03F0020B43F002010B5044620780221E9
:108BA000FFF772FD10BD000070B504460D46032CA2
:108BB00006D1A9200349086000BF002003F098F8FF
:108BC00070BD00002005004070B504460A4903202E
:108BD000FFF7C2FD054600BF2E4626B100BF304656
:108BE000FEF774F900BF00BF022F01D1012000E0A1
:108BF0000020207070BD00004D87020070B58AB063
:108C000004460D462E46202102A8FDF744FCF0B292
:108C10008DF80400300A8DF8050001208DF8080059
:108C20000D4804900594E188ADF81A100221ADF8C2
:108C30001E100021ADF81C1001A9089101208DF82B
:108C4000180001218DF81910628802A9606902F0EC
:108C50007DF90AB070BD0000599F02004FF0FF314E
:108C6000054A42F82010082804DBFF23A0F1080180
:108C700050325354704700000C4E00200146024809
:108C800050F82100704700000C4E00202DE9F04FF5
:108C900003460C464FF0FF390AB1002000E00820DF
:108CA00084460AB1082000E00C208046614624E09A
:108CB000154850F82100401CF0B91D4608462746CB
:108CC00016464FFA80FBDFF840A00AF1300A0AF896
:108CD00005B0DFF834A04AF820704EB94FFA85FB92
:108CE000A0F1080ADFF820E00EF1500E0EF80AB0ED
:108CF00000BF4FFA81F902E0491C4145D8D300BFBB
:108D00004846BDE8F08F00000C4E002001460148A7
:108D1000405670473C4E002070B590B006460C4659
:108D20001546A07818B901208DF80E0002E0A07851
:108D30008DF80E002088ADF80C0000200290607CB9
:108D400002A905F049FFA07C0DF1090105F044FFDF
:108D5000E07B08B1012000E000209DF80A1060F3DC
:108D6000C3018DF80A10207C08B1012000E000202A
:108D70009DF80A1060F304118DF80A10207B08B1E9
:108D8000012000E000209DF80A1060F300018DF83A
:108D90000A10207D08B1022000E001209DF80A1091
:108DA00060F342018DF80A101C2109A8FDF773FB3E
:108DB000607BC0F3001018B9607BC0F34010F8B1BD
:108DC00000200090E07C0DF1010105F005FF00BFDF
:108DD0009DF8000020F00F00401C8DF800009DF869
:108DE000000020F0F00010308DF8000000BF9DF86A
:108DF000020020F00600801C8DF80200CDF838D06B
:108E0000607B8DF82400A07B8DF82500142104A838
:108E1000FDF741FB03A8049002A80590A088ADF8D7
:108E20001C00A06820B1E088ADF81800A068089088
:108E3000A069002849D000200190A0690088ADF801
:108E40002C00A0694088ADF82E00A06940680A9007
:108E500001A80D90A169087B01A905F0BDFEA169DB
:108E6000487B0DF1050105F0B7FEA069807A08B1D5
:108E7000012000E000209DF8061060F3C3018DF88A
:108E80000610A069C07A08B1012000E000209DF81A
:108E9000061060F304118DF80610A069007A08B17D
:108EA000012000E000209DF8061060F300018DF81D
:108EB0000610A069807B08B1022000E001209DF827
:108EC000061060F342018DF80610E06908B1E06910
:108ED0000C902B4604AA09A93046AADF10B070BD39
:108EE00070B58AB004460E46202101A8FDF7D3FADA
:108EF0000020099094F8C60200EB8001C1EB8010BD
:108F000004EB400594F8C502B8B194F8C522521E8E
:108F1000D1B294F8C62202EB8203C3EB821204EBB7
:108F2000420501EBC10305F10A0202EB430002898D
:108F3000521C92B2ADF8242002E0E888ADF824007B
:108F40002889ADF8260003208DF8040009980590C3
:108F5000049405480390324601A90448006801F0D2
:108F6000F5FF0AB070BD000061950200883F002047
:108F700070B505460DB9094C01E0084C083409E00C
:108F8000204601F078FC064606B904E028467168E0
:108F9000884700BFF4E700BF70BD0000004E00200E
:108FA00010B504462CB90120064948700020FFF78F
:108FB000DFFF012C04D1012002498870FFF7D8FFA0
:108FC00010BD0000F84D00202DE9F0470246134681
:108FD0008C46D3E90245DCE90267B6EB040877EB7F
:108FE000050002D30120BDE8F0870020FBE7014621
:108FF0008878012805D191F82000012801D10020AE
:109000007047886A042802D0486A042801D10020E9
:10901000F6E70120F4E70246002007E0536833F842
:1090200010308B4200D17047431C98B213888342A2
:10903000F4DC00BFF7E733B58BB0054600200090A5
:109040000C9878B100240BE021460CA801F0F4FD47
:1090500028B1009A501C009001A820F81240641C0E
:10906000142CF1D32C2269462846FDF7FBF90DB0EC
:1090700030BD10B502460B4600210DE0506830F8B7
:1090800011004FF6FF74A04204D1506820F811304F
:10909000002010BD481C81B210888842EEDC0420FC
:1090A000F7E701460888062808DB0888B0F5486F0E
:1090B00006DD08884FF6FF72904201D00720704706
:1090C0004888062808DB4888B0F5486F06DD4888E0
:1090D0004FF6FF72904201D00720F0E708884FF664
:1090E000FF72904208D04888904205D008884A888C
:1090F000904201DD0720E2E70020E0E72DE9F041A2
:1091000007460D46144698462088801D404502D9E2
:109110000C20BDE8F0813846FFF7C3FF064600BFCC
:10912000304600B1F5E700BF05202188685420884B
:10913000401C20801220218868542088401C2080F8
:1091400022885119388806F051FA21880844208075
:1091500022885119788806F049FA2188084420802D
:109160000020D6E710B5044600BF2046FDF7AEFE4E
:1091700000BF10BD30B587B01C216846FDF78BF9E4
:10918000002000904FF4A03001904FF4F0200290A6
:1091900003208DF80C000020ADF80E008DF81000B3
:1091A00009480590094806906846FEF7D5FB044635
:1091B00000BF254625B100BF2846FDF787FE00BF4A
:1091C00000BF07B030BD0000A1D0020065910200D1
:1091D000F8B505460C46607A88B9207A10B910486F
:1091E000476801E00E4887682A4639466068FDF7FF
:1091F000D7FE064616B1304605F098FB0EE000207B
:1092000020720748406948B101208DF80000ADF890
:109210000250034841696846884700BFF8BD000016
:10922000484D00207FB506460C4600200290039072
:10923000ADF80840ADF80A40009001906A4602A9D6
:10924000304690DF054605B100BF284604B070BD2A
:1092500010B5044621460248FEF7B1FF10BD0000DC
:10926000984000207CB500200090019008480090B4
:10927000084801906846FEF7FBFB044600BF254600
:1092800025B100BF2846FDF721FE00BF00BF7CBD11
:1092900051920200D038002070B506460D4616B136
:1092A0004FF4064070BD287920B1012809D002286A
:1092B00015D111E002202871284604F0D1FE0446A1
:1092C00010E0284600F08EFD044648F20960844212
:1092D00001D141F61D5405E041F61D5402E048F26B
:1092E0000E6400BF00BF2046DCE700002DE9F04F10
:1092F00089B004460F4691464FF0000B2021684686
:10930000FDF7C9F894F8C60200EB8001C1EB8010AC
:1093100004EB400594F8C50200EBC00105F10A001A
:1093200000EB410A94F8C502401C2979884207D114
:1093300008AB00225146204601F055FA834627E04B
:1093400094F8C5621FE02879401EB04202D14FF068
:10935000000806E0701C00EBC00105F10A0000EBFC
:10936000410808AB42465146204601F03CFA10B194
:109370004FF0010B0AE0C24694F8C502401C84F885
:10938000C502701CC6B22879B042DCDC00BF00BF49
:10939000BBF1000F05D101203870002009B0BDE8F5
:1093A000F08F0020387004208DF800000898049099
:1093B0000394044802904A4669460348006801F055
:1093C000C5FDEBE761950200883F00202DE9F041E3
:1093D0008046002414E01248006800EBC405287899
:1093E00003F044F907466878012800D100E0002026
:1093F000784080F001062878314600F06DFC641C4E
:10940000084800788442E6DB0748D0E900100023D2
:1094100059405840014301D005F026FEBDE8F081D7
:10942000B03F0020B43F0020E03F002070B504466C
:109430000E461321204676DF054670BD30B59FB03D
:1094400004460D467C216846FDF725F8ADF802502C
:1094500003208DF8000001940448006818B16846A4
:109460000249096888471FB030BD0000843F0020D2
:109470002DE9F04104460D46164694F8C60200EB6D
:109480008001C1EB801004EB4008404604F044FF2B
:109490000746E7B3D4F8CC02062838D204F5347076
:1094A000D4F8CC1200EBC110468004F53471D4F826
:1094B000CC2201EBC211081D76224146FCF7D2FFF7
:1094C00045B1002104F53470D4F8CC2200EBC21071
:1094D000017007E0022104F53470D4F8CC2200EBCF
:1094E000C210017004F53470D4F8CC1200EBC11036
:1094F000C767D4F8CC02401CC4F8CC020549D4F8A4
:10950000CC020968884202D1204604F00FFBBDE876
:10951000F08100008C3F00202DE9F041A0B004460E
:109520000D46164694F8C60200EB8001C1EB801090
:1095300004EB4008404604F0EFFE074657B17C229A
:10954000064901A8FCF78EFFADF80660029501A858
:10955000B84700BF20B0BDE8F0810000FCF9020070
:109560002DE9F04105460C4616462746002087F8AF
:10957000C802324629463846FFF7CEFF3146384604
:10958000FFF75CFFBDE8F08170B505460C464FF46F
:10959000803000FA04F1284600F084FB70BD70B5FD
:1095A00005460C464FF4A07000EB840086B23146AD
:1095B000284600F009FC70BD2DE9F04704460D4631
:1095C00016461F464FF4803000FA05F84FF4A0709D
:1095D00000EB85001FFA80F926F07F46414620689F
:1095E00002F0B3FC4146206802F0A9FC494620681D
:1095F00002F09EFC32462946206802F090FC41466B
:10960000206802F09FFC1FB14146206802F0A0FCD8
:10961000BDE8F08710B50446206802F085FC10BD57
:109620002DE9F04303460C4616465879254941F882
:1096300020605879244901EBC000007918B1082254
:109640001046BDE8F08321881868C0F8081500BFEF
:1096500093F90450A7782846394600280CDA4FEAD7
:10966000417C4FEA1C69DFF864C000F00F08A8F1E4
:1096700004080CF8089007E04FEA417C4FEA1C68A8
:10968000DFF84CC00CF8008000BF00BF93F9040065
:1096900000BF00F01F050121A9404509AD0005F1FB
:1096A000E025C5F8001100BF00BF01205979064D23
:1096B00005EBC10108715879294641F83030002284
:1096C0001046BEE70C4000201040002018ED00E0DE
:1096D00000E400E010B5014691F9040000F01F031A
:1096E00001229A40024B440943F8242000BF10BDD8
:1096F00000E200E070B505460C46224602212846ED
:1097000000F0DCFA70BD10B504464FF482712046BB
:1097100000F05AFB10BD10B504460021206802F08D
:109720001AFC10BD10B504460421206802F013FC99
:1097300010BD2DE9F84F04468846154699464FF46A
:10974000803000FA08FA4FF4A07000EB88001FFA8E
:1097500080FB25F07F455146204600F0A3FA2068A3
:1097600002F0E2FB06464146206802F0D2FB009080
:1097700032464146206802F0D2FB5946206802F08A
:10978000D7FB3146009805F081FB012806D1102057
:1097900002F084FE5946206802F0CAFB206802F0FD
:1097A000C3FB06463146284605F070FB0746514686
:1097B000206802F0C7FB012F0FD16A1C41462068C8
:1097C00002F0ADFB102002F069FE206802F0ACFB55
:1097D000B04225D00D20BDE8F88F2A4641462068CA
:1097E00002F09DFB206802F09FFB0646681E314692
:1097F00005F04CFB07466FF07F40A0EB0900B84234
:1098000001D20D20E7E75FB96A1C4146206802F0EB
:1098100086FB206802F088FBB04201D00D20DAE719
:1098200001225146204600F049FA0020D3E7704754
:1098300010B510480068407E60B106210120FEF797
:1098400025FB044624B10B48006841690320884782
:10985000002010BD0120074909680876012108464B
:10986000FEF714FB04461CB1002002490968087683
:109870002046EEE77C4000202DE9F84305460E46E1
:109880001746984669461048006801F08EF904466C
:1098900014B90420BDE8F8831C212046FCF7FBFD29
:1098A000012020712560C4F8088008480068B6FBD4
:1098B000F0F0E060676169460348006801F09FF9D5
:1098C00004F00EFB0020E5E7BCFB0200B0FB020049
:1098D00010B50446D4E90321501828DF10BD00005C
:1098E00013480078062820D11148001D007800F0A8
:1098F0000F00D0B90E480830007800F0F000302892
:1099000001D1012070470A480830007800F0F000CB
:10991000402801D10120F5E705480830007800F023
:10992000F000502801D10120ECE70020EAE7000018
:10993000E00F00F013480078062820D11148001DE0
:10994000007800F00F00D0B90E480830007800F021
:10995000F000302801D1012070470A480830007813
:1099600000F0F000402801D10120F5E7054808305B
:10997000007800F0F000502801D10120ECE7002031
:10998000EAE70000E00F00F013480078062820D135
:109990001148001D007800F00F00D0B90E480830C3
:1099A000007800F0F000302801D1012070470A480B
:1099B0000830007800F0F000402801D10120F5E7E0
:1099C00005480830007800F0F000502801D101204F
:1099D000ECE70020EAE70000E00F00F00A4800781A
:1099E00006280ED10848001D007800F00F0040B98D
:1099F00005480830007800F0F000302801D101203F
:109A000070470020FCE70000E00F00F00648006807
:109A1000062806D10448001D0068062801D101204F
:109A200070470020FCE70000300100101348007868
:109A3000062820D11148001D007800F00F00D0B991
:109A40000E480830007800F0F000302801D10120E5
:109A500070470A480830007800F0F000402801D133
:109A60000120F5E705480830007800F0F0005028A4
:109A700001D10120ECE70020EAE70000E00F00F050
:109A80000A48007806280ED10848001D007800F02A
:109A90000F0040B905480830007800F0F000302889
:109AA00001D1012070470020FCE70000E00F00F02A
:109AB00013480078062820D11148001D007800F0D6
:109AC0000F00D0B90E480830007800F0F0003028C0
:109AD00001D1012070470A480830007800F0F000FA
:109AE000402801D10120F5E705480830007800F052
:109AF000F000502801D10120ECE70020EAE7000047
:109B0000E00F00F00A48007806280ED10848001D32
:109B1000007800F00F0040B905480830007800F0E8
:109B2000F000302801D1012070470020FCE7000040
:109B3000E00F00F00A48007806280ED10848001D02
:109B4000007800F00F0040B905480830007800F0B8
:109B5000F000302801D1012070470020FCE7000010
:109B6000E00F00F00A48007806280ED10848001DD2
:109B7000007800F00F0040B905480830007800F088
:109B8000F000502801D1012070470020FCE70000C0
:109B9000E00F00F00278072A38D2DFE802F037043D
:109BA0000712222B340000220A7030E001220A70D2
:109BB00003898B818388CB81C2688A6000230B7400
:109BC00025E002220A7003898B818388CB81C268D9
:109BD0008A60827D062A01D1012300E000230B74F4
:109BE00015E003220A70C3888B810389CB81C26888
:109BF0008A600CE004220A70C3888B810023CB8129
:109C000000228A6003E005220A7000E000BF00BF66
:109C10007047000070B50546002409E0064850F87A
:109C2000240020B1044850F8241028468847641CBA
:109C3000042CF3D370BD00003C4F002030B587B03A
:109C400004460D462068806808B907B030BD182169
:109C500001A8FCF720FC0295A0680690207910B1BD
:109C6000012815D109E001208DF804002069039036
:109C7000E0680490606905900BE002208DF8040014
:109C80000749E0680968484303906069059000E06F
:109C900000BF00BF2068816801A8884700BFD4E7E3
:109CA000B0FB020070B504460D462946206802F05C
:109CB00046F92946206802F048F970BD70B504469F
:109CC0000E4615463146206802F03CF91DB131467A
:109CD000206802F03DF970BDF8B505460C462846EF
:109CE00005F0A0F805286AD2DFE800F003212A3940
:109CF0003F00DCB10121284605F0A4F800200090C7
:109D00006846FDF735FA2A460126002730463946CF
:109D1000FCF799FB2B4AD2E9003218431143294A38
:109D200003C29DF80000FDF729FA00BF47E00CB11F
:109D3000022000E000200146284605F083F83EE0BE
:109D400044B10321284605F07DF80121284605F09D
:109D5000C4FC03E00121284605F074F82FE01CB98B
:109D60000421284605F06EF829E024B10321284695
:109D700005F068F822E00021284605F063F800218C
:109D8000284605F0AAFC002000906846FDF7F0F98F
:109D90002A460126002730463946FCF754FB0A467E
:109DA000C143D043074B0CCB11401840054AC2E9D0
:109DB00000109DF80000FDF7E1F900BF00BF00BFF3
:109DC000F8BD0000E03F002070B505460C4628684D
:109DD000015929B12146286802F0AAF8012070BD76
:109DE0000020FCE73EB504460A4B6A460021A01D50
:109DF00004F0ECF8054635B9064A9188019804F05C
:109E0000C7F9054603E00348002101604160284688
:109E10003EBD00003440002070B505460E46144695
:109E200024B13146284600F016FF03E031462846AB
:109E300000F0F3FE70BD30B504461088C01C984297
:109E400001D90C2030BD0220158848551088401CCF
:109E500010800120158848551088401C10801588F6
:109E60004C551088401C10800020EBE770B504466C
:109E70000D4640F21442115B0122D4F81004FDF7A4
:109E800059FB064606B1357004F13C0204F58261C7
:109E900004F1540072DF70BDF7B50D4617460DB9D9
:109EA0000020FEBD0026009868B1002409E021468C
:109EB000684600F0C1FE18B1A0B23946A847761C2A
:109EC000641C142CF3D33046EBE710B504466068ED
:109ED00003F05CFF10BD00003EB500BF9DF8000020
:109EE00020F00F00401C00909DF8000020F0F000D2
:109EF0001030009000BF0A2214A168467CDF04469F
:109F000000BF254625B100BF2846FCF7DFFF00BF94
:109F100000BF0020019002901020ADF804003C200A
:109F2000ADF806000020ADF808004FF4C870ADF899
:109F30000A0001A87ADF044600BF254625B100BF0C
:109F40002846FCF7C3FF00BF00BF3EBD47575F5325
:109F50006E696666657200002DE9F04106460C46A2
:109F600017462546286910B1304629698847BDE85B
:109F7000F081000002464888064B1B88984208D1B1
:109F8000088840F67723984203D18888C01E024B88
:109F900018807047D83E0020DA3E002070B50E4988
:109FA0000E4800F037FF044600BF254625B100BF2C
:109FB0002846FCF78BFF00BF00BFF721074800F0E1
:109FC0001AFF044600BF254625B100BF2846FCF70E
:109FD0007DFF00BF00BF70BD759F020028420020BA
:109FE00070B506460C4604F11005E888022801DD2C
:109FF000092070BDE988304601F0CAFD60606068E4
:10A0000008B90420F5E7EA88A9680023606801F030
:10A0100033FE0020EDE770B506460C4604F110054E
:10A02000A8680088102801DD092070BDA868008894
:10A03000811C304601F0ACFD6060606808B9042006
:10A04000F3E7A96800230222606801F015FEAB68FF
:10A050001A88E9680223606801F00EFE0020E4E738
:10A0600070B5054615B14FF4064070BD1848007B29
:10A0700018B100201649087301E000F0DFF8144819
:10A08000007808281DD2DFE800F01C04080C101C22
:10A09000141800F03FF8044616E000F0BDF804463E
:10A0A00012E000F099F804460EE000F047F804468C
:10A0B0000AE000F035F9044606E000F043F90446F2
:10A0C00002E048F20E6400BF00BF2046CDE700006A
:10A0D000105000200D480089401C0C4908810020C8
:10A0E0004880087300BF0DE000EB8001084A12F8B9
:10A0F000211009B9012200E0002204490A310A5462
:10A10000411C88B20228EFDB70470000105000208D
:10A11000E84F002010B5084800F036F840B900209C
:10A120000549891E08704880486041F61D5010BDE1
:10A1300000F072F8FBE700001250002070B50F48E5
:10A14000458805EB85000E4901EB8000C06878B9B1
:10A1500004200A49087005EB8500094A02EB8000DB
:10A16000002301224168074801F010FB044602E089
:10A1700000F090F80446204670BD0000105000200A
:10A18000E84F00208440002010B501460022002046
:10A1900018E00F4B1B5C9BB100240D4B1C5400EBD3
:10A1A00080030C4C04EB8303DB684BB900EB8003AA
:10A1B00004EB83031B7C012B02D10880012203E006
:10A1C000431C98B20228E4DB00BF104610BD00001B
:10A1D0001A500020E84F0020F8B50C4844680C489D
:10A1E00000680B49898800EB81056088C01C86B235
:10A1F0000320064908700020B30000900846294655
:10A200004268044801F062FBF8BD000010500020D5
:10A210002C4000208440002010B507494888091DC3
:10A2200003F07AFF18B1FFF7D7FF044602E0FFF70B
:10A2300085FF0446204610BD1050002010B514487C
:10A240000078082820D2DFE800F0041F1F0A10164B
:10A25000171BFFF73FFF01200D49087015E000F0C4
:10A260007DF802200A4908700FE000F029F8062066
:10A270000749087009E000BF07200549087004E09D
:10A2800001200349087000E000BF00BF10BD0000BE
:10A290001050002010B5052006490870022006491C
:10A2A00088800846002301220168044801F06EFA04
:10A2B00010BD0000105000202C40002084400020E1
:10A2C000144908681449498801EB8101134A02EBDB
:10A2D000810149680F4A11600F49498801EB8101EA
:10A2E0000E4A02EB810148600A4989880A4A52886D
:10A2F00002EB8202094B03EB820211810221054A23
:10A3000091800021044A528802EB820203EB820210
:10A31000117470472C40002010500020E84F00209E
:10A3200010B5062005490870498801EB8101044AEF
:10A3300002EB8101486803F0D7FB10BD10500020EC
:10A34000E84F002010B5072003490870002048603E
:10A3500003F0DAFB10BD000010500020054A5068E1
:10A360004288D21C91B2044A92880A44024B9A80D5
:10A3700070470000105000202C40002070B50B48A2
:10A38000FFF748F90A4B0CCB841843F10005094943
:10A3900003C9201A75EB010004D24FF08073E41852
:10A3A00045F100052046294670BD0000E83F002029
:10A3B000F83F0020004000202DE9F0410446884687
:10A3C000E0B2FEF7D3FB0546287802F04FF90746C6
:10A3D0006878012800D100E00020784080F0010674
:10A3E0004EB10648D0E900100023594058400143BF
:10A3F00001D104F039FEBDE8F0810000E03F00200B
:10A4000070B504460D46204600F01DF8A84201D95B
:10A41000022070BDA0884FF6FF71884204D02088CA
:10A4200010B1A068401C08B90120F2E70020F0E755
:10A43000024613468B4204D21868401C08B1012022
:10A4400070470020FCE701464A8801F10C0000EB50
:10A450008200704770B504460D460948606009489F
:10A4600000F008FC50B901F0BDFE064908741C2339
:10A470008C2205490548006800F083FB002070BD70
:10A48000B0FB0200C85000202C500020BCFB020092
:10A490002DE9F04106460C4648F20E6836B1002020
:10A4A000404948604FF40640BDE8F081207930B162
:10A4B00001280AD0022831D0032866D13CE00120CF
:10A4C000207103F021FB804660E00027002518E0A2
:10A4D00005EB8500344911F8200002280FD1002037
:10A4E00005EB8501304A02F82100012705EB8501C3
:10A4F00002EB8101486803F0F7FA804603E0681C2C
:10A5000085B2022DE4DB00BF3FB901202549087068
:10A510000020486041F61D50C6E737E0002020715A
:10A520000220224988800846002301220168204831
:10A5300001F02CF9804629E0002020711D48458853
:10A540001A48076805EB8500174901EB8000406851
:10A550001649086005EB8500134901EB8000476050
:10A560001248808805EB85010F4A02EB81010881C2
:10A5700002200E498880002005EB850102F82100A9
:10A58000384603F0B1FA804600E000BF00BFB8F1E2
:10A59000000F05D000200349486048F20D6083E7B2
:10A5A000002081E718400020E84F00202C400020C8
:10A5B0008440002010500020024600210CE001EBF6
:10A5C0008100074B33F82000904204D101EB810059
:10A5D00003EB80007047491C0229F0D30020F9E703
:10A5E000204D00202DE9F04104460E464FF48E71B7
:10A5F000206801F0BAFE4FF4A271206801F0B5FEA8
:10A600001749206801F0C0FE206801F057FF054699
:10A61000374628463946002809DA4A074FEA126CBD
:10A62000104A00F00F031B1F02F803C003E04A07A3
:10A63000130E0D4A135400BF00BF206801F03EFF07
:10A640000546284600F01F02012191404209920070
:10A6500002F1E022C2F8001100BF00BFBDE8F081A6
:10A660008000020018ED00E000E400E02DE9F04178
:10A6700004460E464FF48871206801F0A6FE4FF4A0
:10A680009071206801F0A1FE4FF49271206801F0F2
:10A690009CFE4FF4A271206801F097FE4FF4AC715C
:10A6A000206801F092FE1849206801F09EFE2068A3
:10A6B00001F008FF0546374628463946002809DAE2
:10A6C0004A074FEA126C114A00F00F031B1F02F8F1
:10A6D00003C003E04A07130E0D4A135400BF00BF26
:10A6E000206801F0EFFE0546284600F01F02012118
:10A6F00091404209920002F1E022C2F8001100BF2D
:10A7000000BFBDE8F08100001003420018ED00E03A
:10A7100000E400E0014600220AE0486830F8120038
:10A720004FF6FF73984201D001207047501C82B24F
:10A7300008889042F1DC0020F7E70000014603485A
:10A74000007A08B1012070470020FCE7C8500020C3
:10A7500010B502460B8992F8C60200EB8004C4EBE8
:10A76000801002EB40000089834201DA012010BD15
:10A770000020FCE72DE9F0410446A08800EB020C24
:10A78000B4F80480904501DD104600E0A088A8EBF5
:10A790000005E088C618B4F80680984501DD184623
:10A7A00000E0E088A8EB00074888B4F80080404546
:10A7B00004DB4888B4F80280404502DD0020BDE893
:10A7C000F0818888A84202D38888604501D900209A
:10A7D000F5E7C888B84202D3C888B04201D9002042
:10A7E000EDE70120EBE770B50446E2B90D8994F876
:10A7F000C60200EB8006C6EB801004EB4000008927
:10A80000854201D1002070BD0889401C188094F851
:10A81000C60200EB8005C5EB801004EB4000008908
:10A8200058800120EFE70889401CD588A84201D153
:10A830000020E8E70889401C1880D088401E588016
:10A840000120E0E7014691F83A00C0F3C100012879
:10A8500005D091F83A00C0F3C100032801D10120CE
:10A8600070470020FCE7014601F0030008B9012011
:10A8700070470020FCE70146086808B102680A60DA
:10A880007047000010B50848007850B1002405E07A
:10A89000022C02D02046FDF78DFE641C042CF7D359
:10A8A00001E0FDF7CBFE10BD083F002010B50446C7
:10A8B0000448007800F0010018B103480078FDF763
:10A8C00091FF10BD043F0020003F002010B501F0B3
:10A8D000A9FD20B901F0CCFD00200149887010BD10
:10A8E000F84D0020F72101801721418000210171DE
:10A8F0004171FB2181711B21C171704708B504F0C2
:10A90000B9FC04F023FB6846FEF75EF903F06CF92E
:10A91000FDF7E8FDFFF7E0FAFFF740FB04F078F8F9
:10A92000FCF7E6F9FEF726FC03F0BEFEFEF79AFC04
:10A9300002F018FAFCF716FA00BF4FF47A7404B963
:10A940000DE000BF4FF47A7505B904E0044FAE0185
:10A950003046B84700BF601E041EF3D100BFECE7CD
:10A96000C1F902002DE9F04105460E46144698460D
:10A97000A888871C2088801C3844404502D90C20B8
:10A98000BDE8F081FE2F01D90C20F9E7781C218861
:10A9900070542088401C2080FF202188705420881B
:10A9A000401C208022889119288804F01FFE2188ED
:10A9B00008442080A88800280DDDA86808B9072071
:10A9C000DEE7AA8823889819A968FBF74BFD208841
:10A9D000A988084420800020D2E72DE9FF4F87B0E6
:10A9E000044691461E46A2462546BAF806009AF845
:10A9F00005104843001F0690BAF806B0301DB0FBA2
:10AA0000FBF00590301DB0FBFBF10BFB1100049037
:10AA1000D9F8000081190698814202D90698801B56
:10AA200001E0D9F800000746C9F8007003E02D687E
:10AA30000598401E059005980028F8D103900498C9
:10AA4000ABEB0008B84501D9384600E040468046E7
:10AA500023E00399089808440290281D04990844AB
:10AA60000190149828B14246DDE90110FBF7FAFC89
:10AA700004E04246DDE90101FBF7F4FC002004900C
:10AA80002D68A7EB0807039840440390BB4501D904
:10AA9000384600E05846804600BF002FD9D10BB0A1
:10AAA000BDE8F08F2DE9F84F05460F46144698464D
:10AAB0002878012804D1687810B90720BDE8F88FFC
:10AAC0002088801C404508D82878012807D1208894
:10AAD000801C69780844404501D90C20EEE72088A5
:10AAE000A8EB0000801E86B200962188891CC81938
:10AAF00069467DDF814600BF484600B1DEE700BF02
:10AB00002878022804D06878BDF80010884206DB57
:10AB1000BDF80000B04202DC4FF0090A0BE04FF034
:10AB2000080A2878012805D16878B04202DC6878E4
:10AB3000009000E00096BDF80000FE2801D90C202E
:10AB4000BCE7BDF80000401C218878542088401CD8
:10AB50002080208807F800A02088401C20802088C2
:10AB6000BDF80010084420800020A7E770B5044617
:10AB70002046FBF79AFB05460DB1002070BD112061
:10AB8000FCE710B5044609B90E2010BD92FBF3F0A6
:10AB900003FB102008B10920F7E721600020606066
:10ABA000A060A281E38100BFEFE770B504460D46C7
:10ABB00029462046FBF72EFB18B12A882168881801
:10ABC00070BD0020FCE770B505460C462088618802
:10ABD000884204D12846FBF75FFB012070BD0020AE
:10ABE000FCE770B504460D4629462046FBF737FBC7
:10ABF00018B16A882168881870BD0020FCE770B51C
:10AC000005460C4620886188884204D12846FBF717
:10AC10001DFB012070BD0020FCE770B505460C4609
:10AC200004F01F0301229A40D143620905EB820020
:10AC300000F027F8064670BD10B50246480952F8E4
:10AC4000200001F01F040123A340184008B1012097
:10AC500010BD0020FCE770B505460C4604F01F034C
:10AC6000012202FA03F1620905EB820000F02AF8E2
:10AC7000064670BD10B504460121204600F00CF8D0
:10AC800010BDF8B504460D466A4629462046FBF736
:10AC90003EFB06460098F8BDF8B504460D466A46E8
:10ACA00029462046FBF726FB06463046F8BDF8B598
:10ACB00004460D466A4629462046FBF70FFB06462A
:10ACC0003046F8BDF8B504460D466A46294620468A
:10ACD000FBF710FB06460098F8BDF8B504460D4694
:10ACE0006A4629462046FBF739FB06460098F8BD20
:10ACF000F8B504460026002000906846FCF738FAB4
:10AD0000206800686168884215D920680068401E84
:10AD1000226810600178204600F033F80646207A59
:10AD200021680978401AC5B220680079A84201DA82
:10AD30002068057100BF9DF80000FCF71FFA30463F
:10AD4000F8BD0246D068081A138AB0FBF3F0C0B20F
:10AD50007047F8B504460D462E4600200090684620
:10AD6000FCF706FA31462046FFF7EBFF21680A6838
:10AD7000511C2368196010709DF80000FCF7FEF963
:10AD8000F8BD0246138AD06801FB0300704710B576
:10AD9000014600BF09B90E2010BD00BF087A0B792B
:10ADA000C01AC2B2D1E90030186005E00868036833
:10ADB000581C0C6820601A70101EA2F10103DAB250
:10ADC000F4D10B68187100BFE6E730B502460B46B8
:10ADD000D40802F00702012090401D5D284030BDDC
:10ADE00030B50B46C20800F007009C5C0125854089
:10ADF0002C439C5430BD024600BF0AB90E20704758
:10AE000000BF172901DBF72901DD0720F7E71180D3
:10AE10000020F4E770B504460E4600BF0CB90E20C2
:10AE200070BD00BF2662F72020806080FB2020716B
:10AE3000002505E0A11D01EBC500FFF753FD6D1CCA
:10AE4000032DF7D30020EBE72DE9F04106460F462E
:10AE50003D46B488032C01DBBDE8F081308824280E
:10AE600020D006DC102809D011280CD0232823D1AB
:10AE70001DE03A280CD055281ED10EE03146284658
:10AE800002F0BBF919E03146284602F047FB14E016
:10AE90003146284602F082FB0FE03146284602F098
:10AEA00047FB0AE03146284602F01CFA05E031462D
:10AEB000284602F041FA00E000BF00BFA81D00EBE9
:10AEC000C4000079A8B1A81D30F834102046A5DFD1
:10AED0008046B8F1000F0AD10021A81D00EBC40084
:10AEE00001710121A81D00EBC400417100E000BF09
:10AEF00000BF00BFB0E72DE9F04104460F46002532
:10AF000000BF14B90E20BDE8F08100BF204603F059
:10AF100005F839462046FEF77EF806462088B042FE
:10AF200011D12046FFF7F6FB18B9206900F08DFE1D
:10AF3000054639462046FEF79CF8054600BF2846E0
:10AF400000B1E0E700BF2846DDE700002DE9F0474B
:10AF500004460D469046002700BF14B90E20BDE8F8
:10AF6000F08700BF00BF0DB90E20F8E700BF2046F4
:10AF700002F0D4FF41462046FEF74DF806462878F9
:10AF8000062802DA2088B04201D10720E7E706EB65
:10AF90008602A16801EB820000F02AFF50B1414611
:10AFA000284603F008FA8146B9F1000F01D038466F
:10AFB000D5E700BF2878194951F8200090B100BFAB
:10AFC000206908B90E20CAE700BF2978134B53F84F
:10AFD0002120294620699047074600BF384600B126
:10AFE000BDE700BF06EB8602A16801EB820029469F
:10AFF00000F021FF07463FB12878084951F82000AA
:10B0000010B1686800F001FE06EB8602A16801EB52
:10B010008200414602F044FE3846A0E790FA020062
:10B02000F8B504460F463D4604B105B9F8BD208881
:10B03000112801D1A68810E02088302804DB208860
:10B040004F2801DCA68808E02088502804DB2088EF
:10B050006F2801DCA68800E0E8E731462846FDF7C6
:10B06000DAFF00902888BDF80010884200D1DDE7A3
:10B07000208811280BD14FF6FF70BDF800206968B9
:10B0800021F812006946E86800F0D5FE09E0BDF835
:10B09000002002EB8202A96801EB8200314602F037
:10B0A000FFFD00BFC2E7024600BF0AB90E2070478D
:10B0B00000BF00BF1078DE2801D00820F7E700BFEE
:10B0C00051800020F3E7024600BF0AB90E20704706
:10B0D00000BF00BF09B90E20F9E700BF1078DE28D5
:10B0E00001D10820F3E708685060DE2010704FF6A9
:10B0F000FF7050800020EAE770B504460E4600BF9E
:10B1000006B970BD00BF00BF04B9FAE700BF3546FD
:10B1100000BF2878DE2800D0F3E700BFA088698848
:10B12000884202D1284604F0C2FA2088012806D0BD
:10B13000022809D0112811D0512817D109E0211D6A
:10B14000284602F018FC12E0211D284602F012FCED
:10B150000DE0211D284602F05DFB08E0A08869880B
:10B16000884202D14FF6FF70688000E000BF00BF48
:10B1700000BFC6E72DE9F04786B004460E46B71C6F
:10B1800004F13A0804F1300994F838A094F82E003C
:10B1900010B906B0BDE8F08700F012FA142101A83A
:10B1A000FBF779F953464A46414638468CDF054657
:10B1B00005208DF80400029525B1A06C10B101A8FE
:10B1C000A16C884700BFE4E74FF4C872C28606212D
:10B1D00001861822428600228286704790F83A1033
:10B1E00021F00401091D80F83A10A0228287502224
:10B1F000C287002240210A5290F83A1021F018012B
:10B2000080F83A1001223B210A5470472DE9F041A1
:10B2100005460E46144600BF15B90E20BDE8F08164
:10B2200000BF00BF0CB90E20F8E700BF16B1032E17
:10B230000CD105E027463946284600F089F8EDE7AD
:10B2400027463946284600F0BDF9E7E70720E5E73D
:10B25000014600BF09B90E20704700BF01F121036C
:10B260000020187001F12B02107000BFF4E72DE9E7
:10B27000F04106460C46174600BF16B90E20BDE841
:10B28000F08100BF04F0020068B904F0010050B979
:10B2900004F0040038B904F0100020B904F00800EC
:10B2A00008B90720EBE73046FFF7D2FF8046354666
:10B2B00004F0010010B1012085F8210004F0040021
:10B2C00010B101212B20415585F82C700020D6E7C4
:10B2D00070B504460D46164600BF0CB90E2070BD71
:10B2E00000BFA6642E212046FBF7D5F8EDB12879E2
:10B2F00084F82E00287B84F83800286830B10E22AC
:10B3000004F13A002968FBF7ADF802E02046FFF7A8
:10B3100065FFA86828B1A868016821634068606378
:10B320000CE02046FFF750FF08E02046FFF756FFED
:10B330002046FFF749FF002084F82E0004F14C005E
:10B34000C4F84C01FF214FF4A87001530020C6E758
:10B350002DE9F04704460F4604F120063846FBF776
:10B36000A5F800F0FF08B8F1000F02D0B8F1200FE7
:10B3700002DD0C20BDE8F0873078012801DB0420D5
:10B38000F8E7002509E004EB45103946FBF795F88E
:10B3900008B90020EEE7681CC5B2012DF3DB384682
:10B3A000FBF784F881463278511C317004EB42106F
:10B3B0004A463946FBF756F80020DBE72DE9F04F07
:10B3C00085B004460D460026002714216846FBF789
:10B3D00062F804F13A0004902046FFF733FA88B18E
:10B3E00002208DF8000001956846A16C884704F59D
:10B3F000A67100208ADF29462046FFF7BBFE05B074
:10B40000BDE8F08F94F82C804FF0000994F821A04B
:10B4100094F82BB0BAF1000F11D0701CC6B22146BF
:10B420002846FBF700FC50B1781CC7B29DF8080015
:10B4300020F00100401C8DF808004FF00109BBF11D
:10B44000000F11D0701CC6B221462846FBF70FFC36
:10B4500050B1781CC7B29DF8080020F00400001D10
:10B460008DF808004FF001090195B8F1000F09D0DF
:10B47000B74207D100208DF8000029462046FFF78B
:10B4800079FE11E0B8F1000F0AD1B9F1000F07D031
:10B4900000208DF8000029462046FFF76BFE03E0F0
:10B4A00003208DF800000195A06C10B16846A16CD6
:10B4B000884704F5A67100208ADF00BF9FE72DE9C9
:10B4C000F04104460D462E4604F1080704F1040835
:10B4D000208810280DD01B2806D01D280ED13946F3
:10B4E0003046FFF76BFF0AE04146304600F024F893
:10B4F00005E04146304600F005F800E000BF00BF1F
:10B50000BDE8F08130B585B004460D46142168468B
:10B51000FAF7C1FF06208DF80000281D0190298848
:10B52000ADF8081004F13A000490A06C10B1684620
:10B53000A16C884705B030BD70B586B004460D4695
:10B540002E1D142101A8FAF7A6FF307801280DD18D
:10B55000A06C58B104208DF8040004F13A00059065
:10B5600030788DF8080001A8A16C884706B070BD3E
:10B5700030B585B0044600BF14B90E2005B030BD0B
:10B5800000BF14216846FAF786FF00F019F820463C
:10B59000FFF758F938B1A06C28B101208DF80000F0
:10B5A0006846A16C884704F5A67104F13A008ADF69
:10B5B0000546082D02D00DB12846DFE70020DDE763
:10B5C0008BDF704770B503460C4603F1220503F18B
:10B5D0002A010878022801DB042070BD002208E05F
:10B5E00035F822002688B04201D10020F5E7501C32
:10B5F000C2B2022AF4DB0E78701C087005EB8600DC
:10B60000266806600020E8E701464FF08040405879
:10B6100008B1012070470020FCE708B500224FF078
:10B6200080410A500958009100BF08BD01490860D7
:10B630007047000008030040012291070A5070473C
:10B6400010B500240F48007808B1852411E00020CF
:10B650000C49886048600861C8600B4800F0F6FE3D
:10B66000044600F0BFFD08B900F0E6FE01200549E0
:10B67000087000F0D7FE10B1012002498870204602
:10B6800010BD0000F84D0020A18F020008B5002079
:10B6900000906846FBF76CFD0748C068401E0649ED
:10B6A000C8600846C06808B9FFF710F99DF80000A7
:10B6B000FBF764FD08BD0000F84D00202DE9F041C6
:10B6C00088B004460F46154626781A4840F826509A
:10B6D0001949386941F82600787F18498855202291
:10B6E00039466846FAF7BEFE04964FF00008207807
:10B6F0001249085C50B10DB1114800E0002002462B
:10B700006946201D01F0E2F980460EE020780B49E1
:10B71000085C50B90DB10B4800E0002002466946B4
:10B7200004F10C0001F09AF88046404608B0BDE8EC
:10B73000F0810000943F0020983F00209C3F0020B3
:10B7400075F402003DF202002DE9F04104460D4679
:10B750001646002720780C49085C30B1324629464D
:10B76000201D01F0F3F907460AE020780649085C3D
:10B7700030B93246294604F10C0001F0B3F807460F
:10B780003846BDE8F08100009C3F00202DE9F041E3
:10B7900004460E4615461F4600BF14B90E20BDE8EC
:10B7A000F08100BF00BF206808B90820F7E700BF9C
:10B7B00000BF0DB90920F2E700BF00BF31462046A7
:10B7C000FBF7C2F908B91020E9E700BF00BF6068C5
:10B7D000006800FB05F231462046FBF7CBF908B9BB
:10B7E0001020DCE700BF20683B462A463146D0F8EF
:10B7F00010C02046E047D2E702460120044B5874AF
:10B800001846007A08B9012070470020FCE70000C4
:10B81000C850002070B504460D46012C01D0032C01
:10B820000BD1002005494874012C01D1012000E012
:10B8300000200249087402F00BFB70BDC8500020C4
:10B8400070B504460E46022C02D0032C00D070BD09
:10B850001C48007A20B1012803D0022826D101E03B
:10B86000F5E723E00025022C02D0032C0CD105E0E3
:10B870001548006801F02CFF054606E012480068F4
:10B8800001F014FF054600E000BF00BF6DB10020CD
:10B890000C490872022C00D100E00D2001460A4834
:10B8A0000068FEF7CBF902F0C3F900BF00BF0548FE
:10B8B000407C10B902F0CCFA01E000F099FC00BF26
:10B8C000C5E70000C8500020484000202DE9F8439B
:10B8D00004460F4616461D46DDF8208000BF14B909
:10B8E0000E20BDE8F88300BF00BF0EB90E20F8E7B8
:10B8F00000BF00BF206808B90820F2E700BF00BF02
:10B900000DB90920EDE700BF00BF60684068B5FBD6
:10B91000F0F100FB115008B10920E2E700BF00BFC1
:10B920003846FBF709F908B91020DAE700BF00BF75
:10B930003046FBF701F908B91020D2E700BF00BF7D
:10B940002A4639462046FBF715F908B91020C8E702
:10B9500000BFCDF8008020682B4632463946D0F82B
:10B960000CC02046E047BCE7F0B5DDE9054500BF67
:10B970004FF0A0473E4641EA420747EA830747EABD
:10B98000042747EA054C06F5E06747F820C0F0BDFC
:10B99000F0B5DDE9054500BF4FF0A0473E4641EA5E
:10B9A000420747EA830747EA042747EA054C06F5BA
:10B9B000E06747F820C0F0BDF0B5DDE9054500BF00
:10B9C0004FF0A0473E4641EA420747EA830747EA6D
:10B9D000042747EA054C06F5E06747F820C0F0BDAC
:10B9E000F0B5DDE9054500BF4FF0A0473E4641EA0E
:10B9F000420747EA830747EA042747EA054C06F56A
:10BA0000E06747F820C0F0BD7CB505460C46002035
:10BA1000009023460246014601902846FFF7CCFFDE
:10BA20007CBD7CB505460C460020009023460246AE
:10BA3000014601902846FFF7D3FF7CBD1CB50446A4
:10BA40000020009003460122114601902046FFF796
:10BA5000B3FF1CBD1CB50446002000900346012224
:10BA6000114601902046FFF7BBFF1CBD10B50A46EA
:10BA700000BF4FF0A043194601F5E06353F82030B2
:10BA800023F4403401F5E06343F8204053F82030BC
:10BA900043EA024401F5E06343F8204010BD01464B
:10BAA00000BF4FF0A040024600BFD2F81005C840CA
:10BAB00000F00100704700BF4FF0A0410A4601238B
:10BAC00003FA00F1C2F8081500BF704700BF4FF03D
:10BAD000A0410A46012303FA00F1C2F8081500BF8D
